{
  "_format": "hh-sol-artifact-1",
  "contractName": "DiceGame",
  "sourceName": "contracts/DiceGame.sol",
  "abi": [
    {
      "inputs": [],
      "stateMutability": "nonpayable",
      "type": "constructor"
    },
    {
      "anonymous": false,
      "inputs": [
        {
          "indexed": true,
          "internalType": "address",
          "name": "player",
          "type": "address"
        },
        {
          "indexed": false,
          "internalType": "uint256",
          "name": "roll",
          "type": "uint256"
        },
        {
          "indexed": false,
          "internalType": "bool",
          "name": "win",
          "type": "bool"
        }
      ],
      "name": "DiceRolled",
      "type": "event"
    },
    {
      "inputs": [
        {
          "internalType": "address",
          "name": "",
          "type": "address"
        }
      ],
      "name": "balances",
      "outputs": [
        {
          "internalType": "uint256",
          "name": "",
          "type": "uint256"
        }
      ],
      "stateMutability": "view",
      "type": "function"
    },
    {
      "inputs": [],
      "name": "deposit",
      "outputs": [],
      "stateMutability": "payable",
      "type": "function"
    },
    {
      "inputs": [
        {
          "internalType": "uint256",
          "name": "betAmount",
          "type": "uint256"
        }
      ],
      "name": "rollDice",
      "outputs": [],
      "stateMutability": "nonpayable",
      "type": "function"
    },
    {
      "inputs": [
        {
          "internalType": "uint256",
          "name": "amount",
          "type": "uint256"
        }
      ],
      "name": "withdraw",
      "outputs": [],
      "stateMutability": "payable",
      "type": "function"
    }
  ],
  "bytecode": "0x6080604052348015600f57600080fd5b50683635c9adc5dea000006000803373ffffffffffffffffffffffffffffffffffffffff1673ffffffffffffffffffffffffffffffffffffffff168152602001908152602001600020819055506108248061006b6000396000f3fe60806040526004361061003f5760003560e01c806327e235e3146100445780632e1a7d4d14610081578063acfff3771461009d578063d0e30db0146100c6575b600080fd5b34801561005057600080fd5b5061006b600480360381019061006691906104ce565b6100d0565b6040516100789190610514565b60405180910390f35b61009b6004803603810190610096919061055b565b6100e8565b005b3480156100a957600080fd5b506100c460048036038101906100bf919061055b565b610208565b005b6100ce610414565b005b60006020528060005260406000206000915090505481565b806000803373ffffffffffffffffffffffffffffffffffffffff1673ffffffffffffffffffffffffffffffffffffffff168152602001908152602001600020541015610169576040517f08c379a0000000000000000000000000000000000000000000000000000000008152600401610160906105e5565b60405180910390fd5b806000803373ffffffffffffffffffffffffffffffffffffffff1673ffffffffffffffffffffffffffffffffffffffff16815260200190815260200160002060008282546101b79190610634565b925050819055503373ffffffffffffffffffffffffffffffffffffffff166108fc829081150290604051600060405180830381858888f19350505050158015610204573d6000803e3d6000fd5b5050565b806000803373ffffffffffffffffffffffffffffffffffffffff1673ffffffffffffffffffffffffffffffffffffffff168152602001908152602001600020541015610289576040517f08c379a0000000000000000000000000000000000000000000000000000000008152600401610280906105e5565b60405180910390fd5b600081116102cc576040517f08c379a00000000000000000000000000000000000000000000000000000000081526004016102c3906106b4565b60405180910390fd5b6000600160066001436102df9190610634565b4060001c6102ed9190610703565b6102f79190610734565b9050600060048210159050826000803373ffffffffffffffffffffffffffffffffffffffff1673ffffffffffffffffffffffffffffffffffffffff16815260200190815260200160002060008282546103509190610634565b9250508190555080156103bf5760028361036a9190610768565b6000803373ffffffffffffffffffffffffffffffffffffffff1673ffffffffffffffffffffffffffffffffffffffff16815260200190815260200160002060008282546103b79190610734565b925050819055505b3373ffffffffffffffffffffffffffffffffffffffff167fd33e6203ba65d364b2e2215a6442bae10f382e128f26b90f3f24325b273e6dad83836040516104079291906107c5565b60405180910390a2505050565b346000803373ffffffffffffffffffffffffffffffffffffffff1673ffffffffffffffffffffffffffffffffffffffff16815260200190815260200160002060008282546104629190610734565b92505081905550565b600080fd5b600073ffffffffffffffffffffffffffffffffffffffff82169050919050565b600061049b82610470565b9050919050565b6104ab81610490565b81146104b657600080fd5b50565b6000813590506104c8816104a2565b92915050565b6000602082840312156104e4576104e361046b565b5b60006104f2848285016104b9565b91505092915050565b6000819050919050565b61050e816104fb565b82525050565b60006020820190506105296000830184610505565b92915050565b610538816104fb565b811461054357600080fd5b50565b6000813590506105558161052f565b92915050565b6000602082840312156105715761057061046b565b5b600061057f84828501610546565b91505092915050565b600082825260208201905092915050565b7f496e73756666696369656e742062616c616e6365000000000000000000000000600082015250565b60006105cf601483610588565b91506105da82610599565b602082019050919050565b600060208201905081810360008301526105fe816105c2565b9050919050565b7f4e487b7100000000000000000000000000000000000000000000000000000000600052601160045260246000fd5b600061063f826104fb565b915061064a836104fb565b925082820390508181111561066257610661610605565b5b92915050565b7f426574206d7573742062652067726561746572207468616e207a65726f000000600082015250565b600061069e601d83610588565b91506106a982610668565b602082019050919050565b600060208201905081810360008301526106cd81610691565b9050919050565b7f4e487b7100000000000000000000000000000000000000000000000000000000600052601260045260246000fd5b600061070e826104fb565b9150610719836104fb565b925082610729576107286106d4565b5b828206905092915050565b600061073f826104fb565b915061074a836104fb565b925082820190508082111561076257610761610605565b5b92915050565b6000610773826104fb565b915061077e836104fb565b925082820261078c816104fb565b915082820484148315176107a3576107a2610605565b5b5092915050565b60008115159050919050565b6107bf816107aa565b82525050565b60006040820190506107da6000830185610505565b6107e760208301846107b6565b939250505056fea2646970667358221220643ee92b8914ca9eaffd803665d3cbb2a3e7c9d6edc613db9f3fd5dbcd406fc464736f6c634300081c0033",
  "linkReferences": {},
  "deployedLinkReferences": {}
}